{
  "contractName": "Todo",
  "abi": [
    {
      "inputs": [],
      "stateMutability": "nonpayable",
      "type": "constructor"
    },
    {
      "anonymous": false,
      "inputs": [
        {
          "indexed": true,
          "internalType": "uint256",
          "name": "id",
          "type": "uint256"
        },
        {
          "indexed": true,
          "internalType": "uint256",
          "name": "date",
          "type": "uint256"
        },
        {
          "indexed": false,
          "internalType": "string",
          "name": "content",
          "type": "string"
        },
        {
          "indexed": true,
          "internalType": "string",
          "name": "author",
          "type": "string"
        }
      ],
      "name": "createNewTask",
      "type": "event"
    },
    {
      "inputs": [
        {
          "internalType": "string",
          "name": "_content",
          "type": "string"
        },
        {
          "internalType": "string",
          "name": "_author",
          "type": "string"
        }
      ],
      "name": "createTask",
      "outputs": [],
      "stateMutability": "nonpayable",
      "type": "function"
    },
    {
      "inputs": [
        {
          "internalType": "uint256",
          "name": "id",
          "type": "uint256"
        }
      ],
      "name": "getTask",
      "outputs": [
        {
          "internalType": "uint256",
          "name": "",
          "type": "uint256"
        },
        {
          "internalType": "uint256",
          "name": "",
          "type": "uint256"
        },
        {
          "internalType": "string",
          "name": "",
          "type": "string"
        },
        {
          "internalType": "string",
          "name": "",
          "type": "string"
        },
        {
          "internalType": "bool",
          "name": "",
          "type": "bool"
        }
      ],
      "stateMutability": "view",
      "type": "function",
      "constant": true
    },
    {
      "inputs": [],
      "name": "getTaskIds",
      "outputs": [
        {
          "internalType": "uint256[]",
          "name": "",
          "type": "uint256[]"
        }
      ],
      "stateMutability": "view",
      "type": "function",
      "constant": true
    },
    {
      "inputs": [
        {
          "internalType": "uint256",
          "name": "id",
          "type": "uint256"
        },
        {
          "components": [
            {
              "internalType": "uint256",
              "name": "id",
              "type": "uint256"
            },
            {
              "internalType": "uint256",
              "name": "date",
              "type": "uint256"
            },
            {
              "internalType": "string",
              "name": "content",
              "type": "string"
            },
            {
              "internalType": "string",
              "name": "author",
              "type": "string"
            },
            {
              "internalType": "bool",
              "name": "done",
              "type": "bool"
            }
          ],
          "internalType": "struct Todo.Task",
          "name": "_task",
          "type": "tuple"
        }
      ],
      "name": "editTask",
      "outputs": [],
      "stateMutability": "nonpayable",
      "type": "function"
    }
  ],
  "bytecode": "0x608060405234801561001057600080fd5b506001600081905550611190806100286000396000f3fe608060405234801561001057600080fd5b506004361061004c5760003560e01c80631d65e77e14610051578063292a4585146100855780632df55d98146100a1578063bcd14805146100bd575b600080fd5b61006b60048036038101906100669190610749565b6100db565b60405161007c959493929190610830565b60405180910390f35b61009f600480360381019061009a91906108f6565b6102d3565b005b6100bb60048036038101906100b69190610ba1565b61049b565b005b6100c5610677565b6040516100d29190610cbb565b60405180910390f35b600080606080600085600054811080156100f55750600081115b610134576040517f08c379a000000000000000000000000000000000000000000000000000000000815260040161012b90610d29565b60405180910390fd5b6000600260008981526020019081526020016000206040518060a0016040529081600082015481526020016001820154815260200160028201805461017890610d78565b80601f01602080910402602001604051908101604052809291908181526020018280546101a490610d78565b80156101f15780601f106101c6576101008083540402835291602001916101f1565b820191906000526020600020905b8154815290600101906020018083116101d457829003601f168201915b5050505050815260200160038201805461020a90610d78565b80601f016020809104026020016040519081016040528092919081815260200182805461023690610d78565b80156102835780601f1061025857610100808354040283529160200191610283565b820191906000526020600020905b81548152906001019060200180831161026657829003601f168201915b505050505081526020016004820160009054906101000a900460ff161515151581525050905087816020015182604001518360600151846080015196509650965096509650505091939590929450565b6040518060a00160405280600054815260200142815260200185858080601f016020809104026020016040519081016040528093929190818152602001838380828437600081840152601f19601f82011690508083019250505050505050815260200183838080601f016020809104026020016040519081016040528093929190818152602001838380828437600081840152601f19601f820116905080830192505050505050508152602001600015158152506002600080548152602001908152602001600020600082015181600001556020820151816001015560408201518160020190816103c49190610f55565b5060608201518160030190816103da9190610f55565b5060808201518160040160006101000a81548160ff021916908315150217905550905050600160005490806001815401808255809150506001900390600052602060002001600090919091909150558181604051610439929190611057565b6040518091039020426000547fc5ac0fc72209747f70a81b77a937ca271058ae50ddce8efc8125889eabba3a4c878760405161047692919061109d565b60405180910390a4600080815480929190610490906110f0565b919050555050505050565b60006002600084815260200190815260200160002090506104bf82604001516106cf565b6105548260020180546104d190610d78565b80601f01602080910402602001604051908101604052809291908181526020018280546104fd90610d78565b801561054a5780601f1061051f5761010080835404028352916020019161054a565b820191906000526020600020905b81548152906001019060200180831161052d57829003601f168201915b50505050506106cf565b1461057057816040015181600201908161056e9190610f55565b505b61057d82606001516106cf565b61061282600301805461058f90610d78565b80601f01602080910402602001604051908101604052809291908181526020018280546105bb90610d78565b80156106085780601f106105dd57610100808354040283529160200191610608565b820191906000526020600020905b8154815290600101906020018083116105eb57829003601f168201915b50505050506106cf565b1461062e57816060015181600301908161062c9190610f55565b505b8060040160009054906101000a900460ff16801561064d575081608001515b6106725781608001518160040160006101000a81548160ff0219169083151502179055505b505050565b606060018054806020026020016040519081016040528092919081815260200182805480156106c557602002820191906000526020600020905b8154815260200190600101908083116106b1575b5050505050905090565b6000816040516020016106e29190611138565b604051602081830303815290604052805190602001209050919050565b6000604051905090565b600080fd5b600080fd5b6000819050919050565b61072681610713565b811461073157600080fd5b50565b6000813590506107438161071d565b92915050565b60006020828403121561075f5761075e610709565b5b600061076d84828501610734565b91505092915050565b61077f81610713565b82525050565b600081519050919050565b600082825260208201905092915050565b60005b838110156107bf5780820151818401526020810190506107a4565b60008484015250505050565b6000601f19601f8301169050919050565b60006107e782610785565b6107f18185610790565b93506108018185602086016107a1565b61080a816107cb565b840191505092915050565b60008115159050919050565b61082a81610815565b82525050565b600060a0820190506108456000830188610776565b6108526020830187610776565b818103604083015261086481866107dc565b9050818103606083015261087881856107dc565b90506108876080830184610821565b9695505050505050565b600080fd5b600080fd5b600080fd5b60008083601f8401126108b6576108b5610891565b5b8235905067ffffffffffffffff8111156108d3576108d2610896565b5b6020830191508360018202830111156108ef576108ee61089b565b5b9250929050565b600080600080604085870312156109105761090f610709565b5b600085013567ffffffffffffffff81111561092e5761092d61070e565b5b61093a878288016108a0565b9450945050602085013567ffffffffffffffff81111561095d5761095c61070e565b5b610969878288016108a0565b925092505092959194509250565b600080fd5b7f4e487b7100000000000000000000000000000000000000000000000000000000600052604160045260246000fd5b6109b4826107cb565b810181811067ffffffffffffffff821117156109d3576109d261097c565b5b80604052505050565b60006109e66106ff565b90506109f282826109ab565b919050565b600080fd5b600080fd5b600067ffffffffffffffff821115610a1c57610a1b61097c565b5b610a25826107cb565b9050602081019050919050565b82818337600083830152505050565b6000610a54610a4f84610a01565b6109dc565b905082815260208101848484011115610a7057610a6f6109fc565b5b610a7b848285610a32565b509392505050565b600082601f830112610a9857610a97610891565b5b8135610aa8848260208601610a41565b91505092915050565b610aba81610815565b8114610ac557600080fd5b50565b600081359050610ad781610ab1565b92915050565b600060a08284031215610af357610af2610977565b5b610afd60a06109dc565b90506000610b0d84828501610734565b6000830152506020610b2184828501610734565b602083015250604082013567ffffffffffffffff811115610b4557610b446109f7565b5b610b5184828501610a83565b604083015250606082013567ffffffffffffffff811115610b7557610b746109f7565b5b610b8184828501610a83565b6060830152506080610b9584828501610ac8565b60808301525092915050565b60008060408385031215610bb857610bb7610709565b5b6000610bc685828601610734565b925050602083013567ffffffffffffffff811115610be757610be661070e565b5b610bf385828601610add565b9150509250929050565b600081519050919050565b600082825260208201905092915050565b6000819050602082019050919050565b610c3281610713565b82525050565b6000610c448383610c29565b60208301905092915050565b6000602082019050919050565b6000610c6882610bfd565b610c728185610c08565b9350610c7d83610c19565b8060005b83811015610cae578151610c958882610c38565b9750610ca083610c50565b925050600181019050610c81565b5085935050505092915050565b60006020820190508181036000830152610cd58184610c5d565b905092915050565b7f4e6f7420666f756e642121210000000000000000000000000000000000000000600082015250565b6000610d13600c83610790565b9150610d1e82610cdd565b602082019050919050565b60006020820190508181036000830152610d4281610d06565b9050919050565b7f4e487b7100000000000000000000000000000000000000000000000000000000600052602260045260246000fd5b60006002820490506001821680610d9057607f821691505b602082108103610da357610da2610d49565b5b50919050565b60008190508160005260206000209050919050565b60006020601f8301049050919050565b600082821b905092915050565b600060088302610e0b7fffffffffffffffffffffffffffffffffffffffffffffffffffffffffffffffff82610dce565b610e158683610dce565b95508019841693508086168417925050509392505050565b6000819050919050565b6000610e52610e4d610e4884610713565b610e2d565b610713565b9050919050565b6000819050919050565b610e6c83610e37565b610e80610e7882610e59565b848454610ddb565b825550505050565b600090565b610e95610e88565b610ea0818484610e63565b505050565b5b81811015610ec457610eb9600082610e8d565b600181019050610ea6565b5050565b601f821115610f0957610eda81610da9565b610ee384610dbe565b81016020851015610ef2578190505b610f06610efe85610dbe565b830182610ea5565b50505b505050565b600082821c905092915050565b6000610f2c60001984600802610f0e565b1980831691505092915050565b6000610f458383610f1b565b9150826002028217905092915050565b610f5e82610785565b67ffffffffffffffff811115610f7757610f7661097c565b5b610f818254610d78565b610f8c828285610ec8565b600060209050601f831160018114610fbf5760008415610fad578287015190505b610fb78582610f39565b86555061101f565b601f198416610fcd86610da9565b60005b82811015610ff557848901518255600182019150602085019450602081019050610fd0565b86831015611012578489015161100e601f891682610f1b565b8355505b6001600288020188555050505b505050505050565b600081905092915050565b600061103e8385611027565b935061104b838584610a32565b82840190509392505050565b6000611064828486611032565b91508190509392505050565b600061107c8385610790565b9350611089838584610a32565b611092836107cb565b840190509392505050565b600060208201905081810360008301526110b8818486611070565b90509392505050565b7f4e487b7100000000000000000000000000000000000000000000000000000000600052601160045260246000fd5b60006110fb82610713565b91507fffffffffffffffffffffffffffffffffffffffffffffffffffffffffffffffff820361112d5761112c6110c1565b5b600182019050919050565b6000602082019050818103600083015261115281846107dc565b90509291505056fea2646970667358221220a898c2c9c178aa08c2600ffda019d734b042ceb18da3f1ad9c699654f9f4d2c364736f6c63430008100033",
  "immutableReferences": {},
  "source": "// SPDX-License-Identifier: MIT\npragma solidity >=0.4.22 <0.9.0;\n\ncontract Todo {\n  // variables\n  struct Task {\n    uint id;\n    uint date;\n    string content;\n    string author;\n    bool done;\n  }\n  //Task[] tasks; V course xi ver c ko xi mng c nn chuyn sang xi mapping\n  uint lastTaskId;\n  uint[] taskIds;\n  mapping(uint => Task) tasks;\n\n// modifier\n  modifier checkId(uint id) {\n    require(id < lastTaskId && id > 0, \"Not found!!!\");\n    _;\n  }  \n\n//event\n  event createNewTask(uint indexed id, uint indexed date, string content, string indexed author);\n\n// constructor\nconstructor(){\n  lastTaskId = 1;\n}\n\n//functions  \n  function createTask(string calldata _content, string calldata _author) public {\n    tasks[lastTaskId] = Task(lastTaskId, block.timestamp, _content, _author, false);\n    taskIds.push(lastTaskId);\n    emit createNewTask(lastTaskId, block.timestamp, _content, _author);\n    lastTaskId++;\n    //tasks.push(Task(tasks.length, block.timestamp, _content, author, false));\n  }\n\n  function getTask(uint id) view public checkId(id) returns(uint, uint, string memory, string memory, bool){\n    Task memory result = tasks[id];\n    return(id, result.date, result.content, result.author, result.done);\n  }\n\n  function getTaskIds() view public returns(uint[] memory){\n    return taskIds;\n    //return tasks;\n  } \n\n  function getHash(string memory field) pure internal returns (bytes32){\n    return keccak256(abi.encode(field));\n  }\n\n  function editTask(uint id, Task memory _task) public {\n    Task storage task = tasks[id];\n    if(getHash(task.content) != getHash(_task.content)){\n      task.content = _task.content;\n    }\n    if(getHash(task.author) != getHash(_task.author)){\n      task.author = _task.author;\n    }\n    if(!(task.done && _task.done)){\n      task.done = _task.done;\n    }\n  } \n}\n",
  "sourcePath": "D:\\TodolistETH\\contracts\\Todo.sol",
  "compiler": {
    "name": "solc",
    "version": "0.8.16+commit.07a7930e.Emscripten.clang"
  },
  "schemaVersion": "3.4.9",
  "updatedAt": "2022-09-26T04:05:17.281Z",
  "networkType": "ethereum",
  "devdoc": {
    "kind": "dev",
    "methods": {},
    "version": 1
  },
  "userdoc": {
    "kind": "user",
    "methods": {},
    "version": 1
  }
}